:020000040800F2
:1000000000200020DD010008E5010008E9010008EA
:1000100000000000000000000000000000000000E0
:100020000000000000000000000000001D020008A9
:100030000000000000000000210200082502000866
:100040002D0200082D0200082D0200082D020008D4
:100050002D020008811000082D0200082D02000862
:100060002D0200082D0200082D0200082D020008B4
:100070002D0200082D0200082D020008551000086E
:100080002D0200082D020008000000002D020008CB
:100090002D0200082D0200082D0200082D02000884
:1000A0002D0200082D0200082D0200082D02000874
:1000B0002D020008000000002D02000800000000D2
:1000C0005FF808F130B583B000F0B4FB314B324A31
:1000D0001360324A1360324B324A03E011681960F0
:1000E0000433043230498B42F8D32B4B1A682F4B20
:1000F0009A4204D1294B1A682D4B9A4200D0FEE750
:10010000244B2C4A13602C4A13602C4B02E0002233
:100110001A6004332A4A9342F9D3264B1B68002BFA
:1001200003D1254B1B68002B00D0FEE700F086FBB7
:1001300001A8694600F00CFB224B234DED1AAD10CF
:10014000002404E0A2001F4BD35898470134A54275
:10015000F8DC1E4B1E4DED1AAD10002404E0A20089
:100160001A4BD35898470134A542F8DC01980099FE
:1001700000F008FF051C174B174CE41AA41004E00C
:10018000013CA200134BD3589847002CF8DC281CE4
:1001900000F0B0FABABADECA0000002084000020E5
:1001A00000000020703900088800002078563412C2
:1001B0003254769888000020380100208800002002
:1001C0003C010020580200085802000858020008AC
:1001D00058020008580200085802000808B5FFF746
:1001E00071FFC04600BEFEE704207146084202D0FF
:1001F000EFF3098001E0EFF3088071460A4A1047E7
:1002000038B5051C0C1C044800F0B6FA281C211C4B
:1002100000F018FB00BEFEE7B037000800BEFEE7A6
:1002200000BEFEE7704700000102000800BEFEE7C6
:100230007039000800000020880000207039000894
:100240000000000000000000880000203C010020A9
:080250000000000000000000A6
:1002580070B5051C0E1C9023DB05984212D03C4B50
:1002680098420FD03B4B98420CD03B4B984209D058
:100278003A4B984206D03A4B984203D03948B421B9
:1002880000F06AFA3268002A03D13648B52100F036
:1002980063FA3379032B03D93248B62100F05CFAAC
:1002A800F379022B03D92F48B72100F055FA00241F
:1002B8004BE00123A34032681A409A4244D1337973
:1002C800013B012B28D87379012B05D9032B03D0C7
:1002D8002448C72100F040FAAA6863000321994026
:1002E8008A43AA60AA68717999400B1C1343AB60D2
:1002F800B379012B03D91B48CE2100F02DFAAA8827
:1003080023041B0C012199408A43AA80AA88B17949
:1003180099408BB21343AB80296863000322101CF9
:1003280098408143296028683179994001432960C0
:10033800E9682004C00B82409143E960EA68F179DA
:1003480099400B1C1343EB6001340F2CB1D970BDDD
:100358000004004800080048000C0048001000484D
:1003680000140048C035000870B5041C0D1C161C8C
:100378009023DB05984212D0174B98420FD0174BA9
:1003880098420CD0164B984209D0164B984206D08A
:10039800154B984203D01548154900F0DDF90F2D8B
:1003A80003D91248134900F0D7F9072E03D90F488B
:1003B800114900F0D1F907232B409B009E40E90822
:1003C800083189000A590F20984082430A510B5975
:1003D8001E430E5170BDC046000400480008004886
:1003E800000C00480010004800140048C035000800
:1003F8000D0200000E0200000F02000038B5041CB8
:100408000D1C0D4B184201D1002803D10B480C4993
:1004180000F0A2F9012D03D908480A4900F09CF917
:10042800002D04D0084B5A6914435C6103E0064B65
:100438005A69A2435A6138BDAAFF81FEF435000803
:10044800360500003705000000100240F8B54F4699
:100458004646C0B4051C0C1C644B984206D0644B3D
:10046800984203D06348EB2100F076F92388002BEB
:100478000FD08022D20093420BD0802212029342E6
:1004880007D0C0221202934203D05A48EE2100F04E
:1004980063F9638882225200934205D0002B03D06F
:1004A8005448EF2100F058F9A388C02292009342E3
:1004B80033D08022D20093422FD0A022D200934280
:1004C8002BD0C022D200934227D0E022D200934200
:1004D80023D08022120193421FD09022120193420E
:1004E8001BD0A0221201934217D0B02212019342CE
:1004F80013D0C022120193420FD0D022120193428E
:100508000BD0E0221201934207D0F022120193424D
:1005180003D03848F02100F01FF9E388002B05D0FC
:10052800022B03D03348F12100F016F92389012B5F
:1005380003D93048F22100F00FF963898022920034
:10054800934205D0002B03D02A48F32100F004F988
:10055800A389002B11D0082B0FD0102B0DD0182BEE
:100568000BD0202B09D0282B07D0302B05D0382BC7
:1005780003D02048F42100F0EFF8E389002B05D0E0
:10058800802B03D01B48F52100F0E6F8238A002BC6
:1005980003D11848F62100F0DFF82B88C122920118
:1005A8001A4091462288E389E78826896089A189CB
:1005B80013433B43334303430B434A4613432B80C4
:1005C800AA880D4B1340A2881343AB80238A2B8241
:1005D8002B8804229343628813432B80AA8B074BF2
:1005E8001340AB830CBC90469946F8BD00300140DF
:1005F8000038004024360008FFF0FFFFFFF7FFFF38
:1006080038B5041C0D1C0F4B984207D00E4B98426E
:1006180004D00E48C821FF3100F09EF8012D04D9FE
:100628000A48E421490000F097F8002D04D02288F8
:1006380040231343238003E02388402293432380ED
:1006480038BDC0460030014000380040243600085C
:1006580038B5041C0D1C064B984206D0054B984231
:1006680003D00548054900F077F8257338BDC04622
:10067800003001400038004024360008EB0200003A
:1006880038B5051C0C1C144B984206D0134B9842E5
:1006980003D01348134900F05FF8802C15D0402C84
:1006A80013D0202C11D0102C0FD0022C0DD0012CDF
:1006B8000BD080235B009C4207D0042C05D0082C6B
:1006C80003D00748084900F047F82B89234201D096
:1006D800012000E0002038BD003001400038004013
:1006E80024360008DA040000DB040000FEE7C046F8
:1006F80008B5034800F054F80120FFF7F7FFC0469B
:100708005436000808B50D4B1B68002B02D10C4A63
:100718000A4B1A60094B1B680330032290431818D0
:10072800084A904206D902F01BFB0C230360012003
:10073800404202E0014A1060181C08BD8C000020ED
:100748003C010020001C002001230360014B0B60CA
:100758007047C0460400002008B5031C0A1C034863
:10076800191C00F005F8FFF7C3FFC046A8360008BB
:100778000FB400B583B004AB04CB019307488021C4
:1007880002F02EFB011E03DD044800F04BF8011CAB
:10079800081C03B008BC04B01847C04694000020E9
:1007A80010B5041C02F0EBFA011C201C00F03AF80A
:1007B8000248012100F036F810BDC0460C37000889
:1007C800F0B54F464646C0B485B0041C8946435C24
:1007D800002B1DD10425281C211CABBE041C1AE0CB
:1007E800351E102D00D91025002304E02278694613
:1007F800CA5401330134AB42F8D36F460022FA548D
:10080800042290464046391CABBE071C761B00E00C
:100818000E1C002EE4D1484605B00CBC9046994603
:10082800F0BDC04608B5FFF7CBFF08BD08B500F01E
:10083800A1F808BD08B500F0CFF808BD38B5041C0C
:100848000D1C1548FFF794FF14482168FFF790FF27
:1008580013486168FFF78CFF1248A168FFF788FF0B
:100868001148E168FFF784FF10482169FFF780FF0E
:100878000F486169FFF77CFF0E48A169FFF778FF11
:10088800E1690D48FFF774FF0C48FFF771FF0C484A
:10089800291CFFF76DFF38BD003700081037000826
:1008A8002037000830370008403700085037000864
:1008B8006037000870370008803700089037000854
:1008C8009837000882B0002301930093264B1968DB
:1008D800802252020A431A60234B1A6880239B0223
:1008E80013400093019B01330193009B002B04D11B
:1008F800019AA023DB019A42EED11B4B1B689A0395
:1009080002D50123009301E000230093009B012BF3
:1009180028D11122154B1A60134B5A685A605A682D
:100928005A605968124A0A405A6059688822520324
:100938000A435A601968802252040A431A600A4B13
:100948001B689A01FBD5084B5A6803218A435A60F1
:10095800596802220A435A60034B5B680C22134011
:10096800082BF9D102B07047001002400020024065
:10097800FF7FC0FF08B5124B1968012211431960A7
:10098800586810490140596018680F4901401960BA
:1009980018680E490140196058680D4901405960AE
:1009A800D96A0F208143D962186B0A49014019633B
:1009B800596B9143596300229A60FFF783FF08BD82
:1009C800001002400CB8FF08FFFFF6FEFFFFFBFF18
:1009D800FFFFC0FFACFEFFFF10B51E4B5B680C228B
:1009E8001340042B07D0082B09D0002B22D11A4A18
:1009F8001A4B1A6021E0184A184B1A601DE0154B73
:100A08005C68A4025A68240F0234C0235B021A42AD
:100A180004D1134B5C43114B1C600EE00D4BDB6A99
:100A28000F21194001310C4800F080FB44430B4B67
:100A38001C6002E0084A094B1A60064B5B681B06FB
:100A48001B0F084AD25CD2B2044B1968D140196016
:100A580010BDC0460010024000127A001C000020A1
:100A680000093D000C000020094B596980229202C0
:100A78000A435A619023DB051968A02292050A43AC
:100A88001A60D968902292050A43DA607047C04616
:100A9800001002400C4B5A6A5A62D862998A0122A5
:100AA800114389B2998219880A4392B21A80064B77
:100AB8001B8ADA07FBD5044B198A01229143198254
:100AC80019889143198070470004004010B5041C30
:100AD80010220B4B1A850B488021FFF7D1FD012806
:100AE800F9D0E1B20748FFF7B3FD06488021FFF7C8
:100AF800C7FD0128F9D01022014B9A6110BDC046EC
:100B0800000400480030014070B50F250540060676
:100B1800360F341C301CFFF7D9FF803E70B2FFF748
:100B2800D5FF201CFFF7D2FF6CB2201CFFF7CEFFC9
:100B3800803D68B2FFF7CAFF201CFFF7C7FF70BDF2
:100B480008B50220FFF7C2FF7E204042FFF7BEFF34
:100B58000220FFF7BBFF1420FFF79CFF2820FFF7B8
:100B6800D3FF0E20FFF7D0FF0620FFF7CDFF0120AF
:100B7800FFF7CAFF1420FFF78DFF08BD70B50F25DA
:100B880005400606360F341C403464B2201CFFF7BB
:100B98009DFF403E70B2FFF799FF201CFFF796FFBC
:100BA800EDB22C1C403464B2201CFFF78FFF403D8F
:100BB80068B2FFF78BFF201CFFF788FF70BDC046A7
:100BC80008B50B1C7F339BB2022802D10B1CBF3324
:100BD8009BB258B2FFF798FF08BDC04670B5061C17
:100BE80002F0CDF885B2002404E03057FFF7C6FFC5
:100BF8000134A4B2AC42F8D370BDC04638B5051C68
:100C08000C1CFA21890000F091FA30302070281C61
:100C1800FA21890000F0CEFA88B2642100F086FA41
:100C280030306070281C642100F0C4FA88B20A21B0
:100C380000F07CFA3030A070281C0A2100F0BAFAC3
:100C48003031E17038BDC04610B582B0041C68462A
:100C58000649052202F08AF8201C6946FFF7CEFFF4
:100C68006846FFF7BBFF02B010BDC046C03700089A
:100C780008B501200121FFF7A3FF1248FFF7AEFFD7
:100C8800114B1888FFF7E0FF01200721FFF798FFB5
:100C98000E48FFF7A3FF02200121FFF791FF0C4840
:100CA800FFF79CFF0B4B1888FFF7CEFF02200721A8
:100CB800FFF786FF0848FFF791FFFA20FFF7EAFEE3
:100CC80008BDC046C837000814010020CC3700080A
:100CD800D03700081C010020D437000810B5114B8C
:100CE800D96901220A43DA618023DB058C221A8044
:100CF80000221A8501225242DA629A8A01210A43A5
:100D080092B29A82084AC320800014582402240A06
:100D180014508020000210609A89114389B2998189
:100D280010BDC0460010024000E100E0094BD9693F
:100D380002220A43DA618C228023DB051A80064BE3
:100D4800064A1A856422DA62998A01220A439A823B
:100D58007047C04600100240000400407FBBFFFF00
:100D68000B4B9A68F0218A439A600A4B99680222D1
:100D78001143996019680A431A60074BC12292000F
:100D8800985806490140995020221A607047C04679
:100D9800000001400004014000E100E0FF00FFFF07
:100DA8001D4B5969802212030A435A611B4A106875
:100DB800C02101431160D068902189050143D160A9
:100DC8009969802292000A439A61154BDA682021BA
:100DD8008A43DA60D968802292010A43DA60596945
:100DE80007220A435A61996A802212010A439A62C9
:100DF8009968802212060A439A60094B9B68002B67
:100E0800FBDB074B996801220A439A60044B1B6875
:100E1800DA07FBD57047C0460010024000080048BA
:100E2800002401400B4BD969802292050A43DA61FC
:100E3800094B1968C02292000A431A60074B1968C7
:100E4800074A0A401A601A681A60196801220A4398
:100E58001A60704700100240000800480074004003
:100E6800FFFCFFFFF0B54F464646C0B489B0384F87
:100E7800BA6980235B011343BB618023DB02984678
:100E8800181C0121FFF7BAFA324C201C032100225A
:100E9800FFF76AFA201C05210022FFF765FA06AD64
:100EA8002823069302232B71032291466A71002698
:100EB800AE71EE71201C291CFFF7CAF910230693A6
:100EC80001232B714A466A71AE71EE71201C291CF0
:100ED800FFF7BEF97B69424613437B612268802392
:100EE80013432360226A0F231A4322622168802257
:100EF80052000A432260E168174A0A40E26021680A
:100F0800802212010A432260226A1343236201A944
:100F1800124B0B8082235B004B80E023DB008B802D
:100F2800CE800E8180239B004B8138238B81CE811C
:100F380007230B820A4C201CFFF788FA201C01218A
:100F4800FFF75EFB09B00CBC90469946F0BDC04661
:100F58000010024000040048FFFCFFFF00C0FFFF34
:100F68000030014008B5FFF77DFFFFF7E9FD0248B3
:100F7800FFF7FEFB08BDC046D837000838B525483E
:100F8800FFF7F6FB244B19682448FFF7F1FBFFF73E
:100F98006BFDFFF7A3FEFFF7C9FEFFF7E1FEFFF7C2
:100FA800FFFEFFF73FFFFFF7DDFF1D4B99680422A7
:100FB8000A439A601A4B1B685A07FBD5184B1A6CE0
:100FC800184D2A60184B9A60DA6A92B2174B1A8049
:100FD800188880B200F01AFD011C154800F080FB4B
:100FE800134900F02DF9134900F050FA00F0EEF81B
:100FF800114C2080114B19681148FFF7B9FB29687B
:101008001048FFF7B5FB21880F48FFF7B1FBFFF742
:101018002FFECAE7003800081C0000202838000806
:101028000024014020010020007400402801002015
:1010380000F07F4500409C45140100201C01002061
:1010480040380008483800085438000808B580239C
:10105800DB051B8ADA070CD50648FFF789FB8023D6
:10106800DB051A8A01218A431A82198801220A4358
:101078001A8008BD64380008F0B5474680B4264B8E
:101088005B699A073FD58023DB051A8801218A43CB
:101098001A80224B1B68002B0CD10022204B1A60AF
:1010A8001E4B19608023DB055A62198801220A4306
:1010B8001A8028E0184E33680227BB433360802328
:1010C800DB051A8801218A431A805B6A144A904614
:1010D80013600022114B1A60124B186801F072FB62
:1010E800041C0D1C4346186801F06CFB021C0B1C09
:1010F800201C291C00F0DAFC00F082F80A4B18606A
:1011080033681F433760044B596902220A435A6106
:1011180004BC9046F0BDC0460004014024010020F4
:10112800180100201C0000201C010020002934D0D8
:101138000123002210B488422CD301242407A142A1
:1011480004D2814202D209011B01F8E7E400A1425E
:1011580004D2814202D249005B00F8E7884201D3F9
:10116800401A1A434C08A04202D3001B5C082243D1
:101178008C08A04202D3001B9C082243CC08A04242
:1011880002D3001BDC082243002803D01B0901D02E
:101198000909E3E7101C10BC7047002801D00020A3
:1011A800C04307B4024802A14018029003BDC046DC
:1011B800190000000029F0D003B5FFF7B9FF0EBCF5
:1011C8004243891A1847C0467047C0469E2110B549
:1011D800C905041C01F098FB002803D1201C00F06D
:1011E800F5FB10BD9E21C905201C00F079FA00F01E
:1011F800EDFB80231B06C018F3E7C0460000000083
:1012080038B50E4B0C4A041C0D1C01F043FB00289A
:1012180004D1201C291C01F0A1FA38BD074B064A4D
:10122800201C291C00F066FF01F098FA80231B0699
:10123800C018F2E7C046C046000000000000E041C8
:10124800F0B55F4656464D464446F0B44602450062
:10125800C00F85B00F1C760A2D0E804641D0FF2D99
:1012680026D08024240400212643F6007F3D8946A9
:101278008B46F90F7C027800640A000E00918A46BA
:101288003CD0FF2834D080231B041C430023E400F7
:101298007F380193009F4346019A7B4049469C460C
:1012A80011430F2900D971E0764F89007F58BF4656
:1012B800002E3ED10822022391469B46D9E75A4682
:1012C800341CC24601920199022937D0032900D162
:1012D800CFE0012900D0ABE053460B4000220026A6
:1012E80032E0002E19D10421012289469346C0E735
:1012F800221C531E9A4102320192CBE70127019723
:10130800002CC7D0201C01F009FB431F9C4076230A
:101318005B420021181A0191BCE7301C01F0FEFA6B
:101328007625431F9E406D4200232D1A99469B4601
:101338009FE70C23032199468B469AE7D44601235D
:1013480067463B40FF2200267602D205700ADB077B
:101358001043184305B03CBC90469946A246AB469C
:10136800F0BD80260023F603FF22EDE700220026C9
:10137800EAE78020C00306423BD0044239D1061C6C
:1013880026437602760A009BFF22DDE7281A03909F
:1013980076016401A64239D3361B1A2201230120A3
:1013A800311C5B007600002901DBB44201D8361BF2
:1013B8000343013A002AF3DC741EA641341C1C4383
:1013C800039A7F32002A27DD630704D00F232340C6
:1013D800042B00D00434270103D52B4B039A1C405F
:1013E8008032FE2A0BDD012361460B40FF220026D6
:1013F800AAE706437602760A4346FF22A4E7A40139
:1014080001236746660AD2B23B409DE7039F1B2231
:10141800013F03970023C2E77E23039F5B42DB1B48
:101428001B2B07DD012361460B40002200268BE7BA
:10143800D446C5E7221CDA40039B9E339C40231CFC
:101448005C1EA34113435A0704D00F221A40042AF2
:1014580000D004335F0105D5012361460B4001220A
:10146800002671E79E01624601231340760A002296
:101478006AE78026F60326437602760A5346FF2259
:1014880062E7C04678380008FFFFFFF7F0B55F460F
:1014980056464D464446F0B44402460083B00F1CFD
:1014A800640A360EC50F002E41D0FF2E22D08023AD
:1014B8001B0400201C43E4007F3E82468046391C02
:1014C8004B007F02C90F7F0A1B0E8B463BD0FF2BB8
:1014D80034D0802212041743FF007F3B00215A4674
:1014E8006A40019252460A430F2A63D87A4892000A
:1014F80082589746002C3FD10822022392469846EC
:10150800DDE70195404602282AD1019A01251540B8
:10151800FF2300246402DB05600AED071843284313
:1015280003B03CBC90469946A246AB46F0BD002CA1
:1015380027D10420012282469046C0E7391C4A1E62
:1015480091410231CBE70121002FC8D0381C01F0AE
:10155800E5F9431F9F4076235B421B1A0021BEE733
:10156800032800D1AEE001284FD10198424610402F
:10157800C5B200230024CDE70C2303209A468046F9
:101588009DE7201C01F0CAF97626431F9C4076424D
:101598000023361A9A46984691E780240025E403EA
:1015A800FF23B7E75B463C1C01938846AAE73C1C2F
:1015B8008846A7E7250C24043A0C240C3F04F618A7
:1015C8003F0C211C231C794353436F435543FB189D
:1015D8000A0C9B18B1469F4202D980225202AD18CC
:1015E80009041A04090C521894011B0C611E8C4141
:1015F800920EED181443AD012C43230105D50122A9
:1016080063080120144081441C434B467F33002B60
:101618002DDD600704D00F222240042A00D00434B4
:10162800220103D52D4B1C404B468033FE2B17DD82
:10163800019B01251D400024FF236BE78020C00388
:10164800044208D0074206D1041C3C436402640AE1
:101658005D46FF235EE704436402640AFF2359E7FB
:101668000198A4010125640ADBB2054052E77E23F4
:101678005B424A469B1A1B2B05DD019B01251D4039
:101688000024002346E7221CDA404B469E339C4048
:10169800231C5C1EA3411343580704D00F221A4091
:1016A800042A00D004335A0105D5019B01251D40A9
:1016B800002401232EE701989C010125640A0540B6
:1016C800002327E78027FF03019B3C436402012591
:1016D8001D40640AFF231DE7B8380008FFFFFFF725
:1016E800F8B5C20F430244004D024800240E161CF0
:1016F8009B09000EC90FAD09FF2800D183E001271F
:1017080079408A425CD0221A002A00DC8EE0002848
:101718001ED1002D00D07AE0580704D00F221A40BD
:10172800042A00D004338021C90401221940324020
:1017380000293AD00134FF2C00D183E09B015B0AD9
:101748005B02E4B2E405580AD20720431043F8BD0F
:10175800FF2CE1D08021C9040D431B2A00DD31E1B3
:10176800291C2020D140821A95406A1E95410D43BC
:101778005B1B5801D0D59B019F09381C01F0CEF89E
:10178800421F974094425FDC141B1F231B1B3A1C0B
:101798009F40611C3B1CCA405F1EBB411343002491
:1017A800BAE7131EB8D100230022DB08FF2C04D1AE
:1017B800002B47D08020C00303435B025B0ABFE7CE
:1017C800211A002944DD002827D0FF2CA4D080202E
:1017D800C00405431B2900DDF2E0281C2027C8406F
:1017E800791A8D40691E8D4105435B19590100D452
:1017F80092E70134FF2C59D0734901221A400B405B
:101808005B08134388E7002D00D07AE777E7013AB1
:10181800002AADD0FF2CA0D17EE7002D00D17BE7B8
:1018280001390029E1D0FF2CD4D175E7002A1BD15A
:10183800621CD2B2012A4BDD5F1B7A0123D5EF1A55
:101848000E1C9AE700237BE75F4BA41A3B4063E733
:10185800002946D1611CC8B2012829DDFF2924D0FE
:10186800EB185B080C1C57E7002C13D0FF2818D086
:101878008024E404524223431B2A4DDD0123EB1A42
:10188800041C0E1C75E7002F00D076E70023002209
:1018980000248AE7002B3BD0D243002AEFD0FF2850
:1018A800EAD12B1CFF240E1C36E7FF2400237CE71B
:1018B800002C5CD1002B00D180E0002D00D12BE75B
:1018C8005B19580100D427E73F4A0124134023E756
:1018D800002C15D1002B40D1002D63D02B1C0E1CE1
:1018E8001AE7002C21D1002B54D0C943002904D079
:1018F800FF284CD01B2958DD01235B19041C75E710
:10190800002B19D1002D48D02B1C0E1CFF2403E7F7
:101918002B1C041C0E1CFFE61C1C2026D440B21AEB
:1019280093405A1E93412343A9E7FF282FD08024D0
:10193800E40449422343DDE7FF24002D00D1EBE610
:101948008022DB08D203134204D0ED08154201D1EE
:101958002B1C0E1CDB00FF24DEE6002D00D1DBE68D
:101968005A1B500100D41CE7EB1A0E1CD4E6002BBE
:101978000DD0FF24002D00D1CEE68022DB08D20353
:101988001342E7D0ED081542E4D12B1CE2E72B1CEB
:10199800FF24C1E62B1C041CBEE6802300229B0406
:1019A800FF2402E7231C0022FFE61C1C2027CC4052
:1019B800791A8B40591E8B4123439EE72B1CABE6BB
:1019C800012512E70125D3E6FFFFFFFB4302590A71
:1019D8004300C20F1B0E00207E2B0DDD9D2B0CDC5F
:1019E800802000040143952B0ADC9620C31AD940B5
:1019F8004842002A00D1081C7047034BD018FBE767
:101A0800963B9940F4E7C046FFFFFF7F10B5041EE0
:101A180033D000F083FF9E231B1A962B09DC08386D
:101A280084406402640ADBB26402DB05600A18437E
:101A380010BD992B0ADD0522121A211CD1400A1C5F
:101A4800011C1B318C40611E8C411443052801DDAB
:101A5800421F9440144A2240610704D00F210C40D1
:101A6800042C00D0043251010AD59F23181AFF28EC
:101A780016D09401640AC3B2D6E700230024D3E742
:101A8800D208FF2B03D05402640ADBB2CCE7002A49
:101A980006D08024E40314436402640AFF23C3E7E6
:101AA800FF230024C0E7C046FFFFFFFBF0B5564602
:101AB80044465F464D46F0B41F1C0B031B0B98466B
:101AC8004B0087B0041C81465B0DC80F161C9A4654
:101AD8000090002B51D06A4B9A4531D08022414664
:101AE80052030A43630FD2001A43664B90460025FF
:101AF800E20091469A44002402953B031B0B9B4647
:101B0800FD0F7B00311C5B0D019560D05C4A934250
:101B180054D08021584649030143720FC90011432C
:101B2800584A8B469B18F1000020009A04436A40EB
:101B380003920F2C00D9ADE0534EA4003459A746A8
:101B4800404604436ED10021022508248846894670
:101B58000295D2E7009C0298C346494601940228A0
:101B680064D0032800D1ABE2012800D038E2019A02
:101B7800002402400025A14660E0434623434AD0A2
:101B88004046002800D1C0E100F0C8FE031E272B04
:101B980000DDB3E128210D1A211C083B4246E9402B
:101BA8009A400D1C1543221C9A40A8469146374B73
:101BB80000251B1A9A46002402959EE75A461643AA
:101BC8000320002EB1D1B34600210220ADE75A46CA
:101BD80032431BD05B46002B00D18AE1584600F007
:101BE8009DFE272800DD7DE12822171A011C321CE2
:101BF80008395B46FA408B40171C1F43331C8B4047
:101C0800BB46191C214B1B1A00208EE70027BB4638
:101C18000021012089E7002001250424804681460F
:101C280002956AE703250C24029566E7019C039454
:101C3800039D01222A400024114DA14600200021C5
:101C48002403260B0C0D2405114B34432D0523408A
:101C58002B435B005B08D207191C4846114307B0A9
:101C68003CBC90469946A246AB46F0BD0022802473
:101C780024039146024DE1E700240025A146DDE753
:101C8800FF07000001FCFFFFF83800080DFCFFFF0C
:101C9800FFFF0F805546ED1A0495D84500D953E14A
:101CA80000D14EE1049C0025013C4E460494474671
:101CB800A946584603020C0E1C430902250C2304AE
:101CC8001B0C0091381C291C0193FFF72FFA01996E
:101CD80083464143381C8A46291CFFF76BFA330CAC
:101CE800090419438A450CD95B460919013B8C4202
:101CF80000D947E18A4500D844E102225242934480
:101D080009195346CB1A181C291C9846FFF70EFAD6
:101D1800071C0198291C784382464046FFF74AFA77
:101D280036040B04360C33439A4509D91B197A1E1D
:101D38009C4200D924E19A4500D821E1023F1B19B1
:101D48005E4632041743380CBB46009E009F51463E
:101D58003F0C32045B1A5946BA46120C0F043F0C6A
:101D6800904651467A434F43414641435646704355
:101D7800CF19160CBE19B14202D980277F02C019AB
:101D8800310C12043604120C4018B618834200D2E3
:101D9800C4E000D1BEE0191A4846861BB145BF41D0
:101DA8007F42CF1BA74200D113E1291C381CFFF743
:101DB800BDF9019902904143381C8946291CFFF757
:101DC800F9F9330C0904194389450CD9029B0919FF
:101DD800013B8C4200D9FFE0894500D8FCE0029F16
:101DE8000919023F02974F46CF1B381C291C05973B
:101DF800FFF79CF9071C0198291C78438146059830
:101E0800FFF7D8F936040904360C0E43B14509D951
:101E180036197B1EB44200D9E0E0B14500D8DDE0B8
:101E2800023F3619029D4946761A290439430B04A4
:101E380057460A0C1B0C40464546584355437B43BE
:101E48007A43EB18070CDB199D4202D980256D02F5
:101E580052191D0C00041B04000C52191B18964241
:101E680035D300D1FCE001231943049E994FF5199D
:101E7800002D00DCA1E0480709D00F230B40042BFC
:101E880005D00B1D8B42894149428B44191C5A4687
:101E9800D20107D5904B5C46049E80271C40FF006A
:101EA800A346F5198D4B9D427ADD039C0122224001
:101EB80000248B4DA146C1E68024240347462742CF
:101EC8004CD13C432403240B009A854DB6E63619C1
:101ED800481EB4425ED9011C9642C4D1009E9E425F
:101EE800C1D1C2E7031C283B311C99408B46002115
:101EF80088E6301C00F012FD203072E6283B211CD9
:101F0800994000228846914651E6201C00F006FDC3
:101F180020303BE60021B14500D33DE7009F5A46FB
:101F2800B944B945BF417F423F19FB18013A9C4269
:101F38001ED2984200D97EE000D1B5E0191A934626
:101F48002AE7894500D8ADE648464646424677081E
:101F5800D3074608C0071E438146AAE658462042D2
:101F680012D1044324032A1C240B89465C4D65E6E0
:101F7800A342E3D1009F4F45DBD9211A93460BE7D3
:101F8800171CDDE69B46BCE63C432403240B009A61
:101F9800534D53E6B24259D800D18AE0011C62E79A
:101FA8005F46C9087B07039E0B437C026D0501222F
:101FB8009946240B6D0D324040E64A4B049FDB1BCB
:101FC800382B10DD039C0122224000240025A14665
:101FD80034E60121494248E7029304E71F1C21E740
:101FE800019C039441E71F2B40DC3F48049F0C1CD5
:101FF8003A1858469140DC40904020430A1C511E34
:102008008A41011C11435A46DA40131C480709D07B
:102018000F220A40042A05D00A1D8A4289414942F2
:102028005B18111C1A0234D5039C0122224000249B
:102038000125A14602E6009F02214942B9448B448A
:10204800B945894149420919CB18A4E6009D881E63
:102058006900A942AD416D422C19361900913AE741
:10206800002B00D033E70024009437E71F4A049C74
:102078005D46121BD5402A1C202B1FD01C4E5F46E4
:10208800A3199F403B1C19434B1E99411143002340
:10209800BCE75A07C9080A43039F91465B0201221D
:1020A8001C0B3A400025C9E54E45C4D8934600218B
:1020B80072E6009F9F42C9D3011C0FE70023E2E7A5
:1020C800802424035F463C432403240B019A894659
:1020D800034DB3E5FF030000FFFFFFFEFE0700000E
:1020E800FF07000002FCFFFF1E040000E2FBFFFFE9
:1020F8003E040000F8B55F46564644464D46F0B4E7
:102108000C034D00CF0F610A440F2143C40018038C
:10211800DE0F8046B44646465800760A530F3343CE
:10212800D600D14A6D0DBA46400DB346904200D153
:10213800F5E06246012672409446674500D1ABE05F
:102148002F1A002F00DC11E100283ED15846184311
:1021580000D0F1E0600700D197E00F232340042B63
:1021680000D122E1221DA242A44164428023091920
:102178001B04012750460B400740141C002B00D1BC
:1021880079E0B94B01359D4200D10BE1B74BE4082A
:1021980019404807490204430B0B002000211B0388
:1021A8001A0B0B0D6D051B0513436A08B04DFF078D
:1021B8001D4015436D006D08291C3943201C3CBC8B
:1021C80090469946A246AB46F8BDA7488542C1D07D
:1021D800802000040343382F00DDFDE01F2F00DDC1
:1021E80031E12020C01B1A1C5E468240FE4032436B
:1021F80094465A468240101C421E9041FB4062465B
:1022080002431F1CA21A9442A4416442C91B091B21
:10221800141C0A029ED549024F0A002F00D1D6E0AD
:10222800381C00F07BFB021C083A1F2A00DDC3E0C3
:102238002821231C091A9740CB401F4394409542FC
:1022480000DDC0E0551B691C1F2900DDEAE01F22E4
:10225800551B3B1C221CAB40CA40AC40651EAC4120
:102268001343CF401C43391C002573E780217E4D62
:102278000027C90300247C4B4807E4080443C90825
:102288009D4250D009030B0B87E780231B040127CD
:1022980052460B40174071E72A1A9446002A00DC80
:1022A800A1E0002854D07048854200D152E7802030
:1022B800000403436046382800DD0EE11F2800DDD6
:1022C80057E162462020801A1E1C8640B1465E46B1
:1022D800D6404A4632435E4686409046301C421EEF
:1022E8009041424602436046C3401219A242A441AB
:1022F800644259180919141C080200D42AE75A4BD9
:1023080001359D4200D131E1584B60081940012345
:1023180023401C1C0443CB071C4349081AE71E43EF
:1023280000D00AE705E7231C0B433BD080231B039F
:102338000B431B031B0B30E7013F002F6DD15E469B
:10234800A21B9442A4416442C91A091B141C60E7E9
:102358005846184300D1FDE601267642B44460464B
:10236800002800D0D0E05E463219BFE7002F00D029
:1023780080E0681C4005400D012800DCE8E05A4672
:10238800A21A9442BF41C81A7F42C71B3E0200D41A
:1023980098E05846041BA3459241591A52428F1A95
:1023A800E2463AE700230024F7E680231B040127CE
:1023B80056460B403740E1E6271C28388740002462
:1023C800954200DC3EE72949AD1A3940C2E6201C97
:1023D80000F0A4FA203026E75A461A43531E9A41C1
:1023E800D2B200270EE7002A00D0DEE0681C4605BE
:1023F800760D012E00DC90E01B4DA84200D1F5E0DF
:102408005E463219A242A441644259180919CC0700
:10241800520814434908051C9CE61348854200D01D
:10242800D9E697E62B1C1F3B3E1CDE40331C2029B7
:102438006FD03F22551BAF403C43601E84411C4374
:102448000021002586E6381C20381E1CC640301C9A
:10245800202F60D04022D71BBB405A461A43531E38
:102468009A4102430027CDE6FF070000FFFF7FFFE8
:10247800FFFF0F80002D37D0B64DA84200D18FE066
:1024880080252D047F422943382F00DDA8E01F2F27
:1024980000DD24E12025ED1B0E1CAE40B046261CB5
:1024A800FE404246AC401643651EAC413443F940F9
:1024B8005A46141BA34592415B1A5242991A051CAD
:1024C800E246A6E6131C3B43141C002B00D0A4E6EE
:1024D8000027002100250024CDE65A461A43531E42
:1024E8009A41D2B2002300E70D1C254358D0FF4380
:1024F800002F51D15A46141BA3459241591A5242F2
:10250800891A051CE24684E69248854200D0D1E645
:1025180020E6002790E700239FE7081C2043002DB2
:1025280000D0C2E0002800D1EFE05846184300D19F
:1025380010E658460219A242A441644259180919E2
:10254800141C0A0200D405E6834B0125194001E654
:10255800081C2043002D38D100286FD15946194353
:1025680003D0191C5C46E246F4E50027002100244C
:1025780081E6604620381A1CC2406646101C202E90
:1025880000D1AAE04022921B93405A461A43531E98
:102598009A4102430023A8E66E4DA84200D073E793
:1025A800191C5C46051CE246D4E5002D22D10D1C01
:1025B800254376D0D543002D70D15C445C459241CB
:1025C800591852428918051C96E600284CD15946DC
:1025D800194300D14AE6191C5C46E2465D4DB9E54F
:1025E8000C43611E8C41E4B2002161E7051C002107
:1025F800002440E6574DA84253D055428022160485
:102608003143382D7BDC1F2D00DD8CE02022561B4A
:102618000A1CB446B240261CEE403243904662463D
:102628009440661EB44142461443E9405C445C450C
:102638009241CB1852429918051C5DE6584618433A
:1026480000D187E55E46A71BBC429241C81A524298
:10265800801A060260D55846041BA3459241591AB0
:102668005242891AE24675E55846184333D048075E
:10267800E40804438020C9080003014208D0DD08AB
:10268800054205D15946CA085C071443291CE2468D
:10269800630FC9001943E4002E4D5BE52D4A9042B3
:1026A800AFD1191C5C46051C54E5002830D05846AB
:1026B800184310D080254807E408C9082D030443AF
:1026C8002942E5D0D8082842E2D15D46EA085C07ED
:1026D8001443011CDCE71F4D3CE5002355E73D1C76
:1026E800203D0E1CEE40351C202F2ED04026F71B17
:1026F800B9400C43611E8C412C430021D8E60C43A1
:10270800611E8C41E4B2002190E7191C5C4621E56A
:10271800191C5C460F4D1DE5031C3B4300D124E703
:10272800011C3C1C16E52026764276190A1CF2404C
:102738009046202D0BD04026751BA9400C43611EE6
:102748008C4145462C43002170E70021D1E7002148
:10275800F4E7C046FF070000FFFF7FFF70B50B1CC2
:10276800124C09030E0B5900021C490DDD0F002005
:10277800A14211DD0E4881420FDC80204003064350
:102788000C48401A1F280BDD0B4A521AD640321C3F
:102798005042002D00D1101C70BD084BE818FBE713
:1027A800074BC240C9188E403243F1E7FE030000D0
:1027B8001D0400003304000013040000FFFFFF7F26
:1027C800EDFBFFFF10B5041E28D000F0A7F8154A4E
:1027D800121A0A2815DD0B38844024035205240BED
:1027E800520D0023002000212403181C0B0D240B7C
:1027F8001B0523430C4C12051C401443640061085C
:1028080010BD031C1533211C99400B1C0B21081A01
:10281800C44024035205240B520DE3E70022002490
:102828000023DFE71E040000FFFF0F808446101C12
:1028380062468C46191C634600E0C0461FB500F08E
:1028480011FA002801D40021C8421FBD10B500F0BC
:1028580041F94042013010BD10B500F003FA0028DC
:1028680001DB002010BD012010BDC04610B500F0EE
:10287800F9F9002801DD002010BD012010BDC04677
:1028880010B500F071F9002801DC002010BD01200E
:1028980010BDC04610B500F067F9002801DA002025
:1028A80010BD012010BDC0468446081C6146FFE7E4
:1028B8001FB500F0C3F8002801D40021C8421FBD8D
:1028C80010B500F049F84042013010BD10B500F0D5
:1028D800B5F8002801DB002010BD012010BDC0465E
:1028E80010B500F0ABF8002801DD002010BD012074
:1028F80010BDC04610B500F059F8002801DC0020D2
:1029080010BD012010BDC04610B500F04FF80028DA
:1029180001DA002010BD012010BDC0461C21012392
:102928001B04984201D3000C10391B0A984201D3AA
:10293800000A08391B09984201D30009043902A288
:10294800105C40187047C0460403020201010101EF
:1029580000000000000000004A02430270B55C0A53
:10296800550A43004A001B0EC60F120EC90FFF2B53
:1029780005D0FF2A08D0012093420BD070BD01205A
:10298800002CFBD1FF2AF6D10120002DF6D1012021
:102998009342F3D1AC42F1D18E4205D0002BEDD158
:1029A800201C441EA041E9E70020E7E74A02430251
:1029B800F0B55C0A550A43004A001B0EC60F120EFA
:1029C800C90FFF2B31D0FF2A34D0002B16D160421B
:1029D80060418446002A14D0002820D18E4217D1A5
:1029E800934215DC04DBAC4212D80020AC4212D270
:1029F800704270414042012318430CE0002AEDD197
:102A080094466F426F416046002805D1002FE5D0FB
:102A1800704201231843F0BD0020002FFBD148422B
:102A28004841404201231843F5E7002CCBD002204F
:102A38004042F0E7002DC8D0F9E7C0464A024302F9
:102A4800F0B55C0A550A43004A001B0EC60F120E69
:102A5800C90FFF2B27D0FF2A29D0002B10D0002A1E
:102A680015D194466F426F416046002815D000206A
:102A7800002F04D148424841404201231843F0BD89
:102A8800604260418446002AECD00028F2D18E4290
:102A980011D0704201231843F1E7002FF7D070429C
:102AA80001231843EBE70220002CE8D1D3E70220EA
:102AB800002DE4D1D1E79342EBDC04DBAC42E8D84B
:102AC8000020AC42DBD270427041404201231843DF
:102AD800D5E7C046F0B55F4656464D464446F0B485
:102AE8000D1C041C8046E80F814618030F03000BD9
:102AF8003F0B83B084461B48009749005E00DF0FF8
:102B0800490D9246760DBB4681420CD01548864247
:102B180010D00120B14215D003B03CBC9046994674
:102B2800A246AB46F0BD009F01202743F4D10D48D3
:102B38008642EED1604602430120002AECD10120F2
:102B4800B142E9D1009B6345E6D1D045E4D1D945EE
:102B580006D00029E0D11C43201C441EA041DBE71D
:102B68000020D9E7FF070000F0B55F4656464D46FE
:102B78004446F0B4CD0FDE0FAC461D032D0BB14615
:102B8800374E0F034C00AB465D0080463F0B640D8B
:102B980092466D0DB44232D0314EB54235D0002C3C
:102BA8000ED1384341424141081C002D0BD0002969
:102BB80019D1CC452DD0654668420123184318E049
:102BC800002DF6D1281C59460A4353425341002888
:102BD80006D1002BEDD0634658420123184308E084
:102BE8000020002B05D14A46504250414042012363
:102BF80018433CBC90469946A246AB46F0BD3E1CE5
:102C08000643C9D002204042F3E75E461643C6D0C9
:102C1800F8E7AC4207DC0BDA6146484248414042DB
:102C280001231843E5E76646704201231843E0E7AD
:102C38005F450AD80ED000205F45DAD26546684263
:102C48006841404201231843D3E7624650420123BA
:102C58001843CEE7D045F8D80020D045EED3C8E7D2
:102C6800FF070000F0B556464D4644465F46F0B4AF
:102C78000D1C83B0041C0190E80F814618030F0354
:102C8800000B3F0B84463548009749005E00DF0F74
:102C9800490D9246760DB846814234D02F48864277
:102CA80036D0002918D0002E1FD1341C67463A436D
:102CB80053425341002C1FD00020002B05D142461F
:102CC8005042504140420123184303B03CBC904657
:102CD8009946A246AB46F0BD009804436042604165
:102CE800041C002EE2D00028E9D1C14515D04F467A
:102CF800784201231843E8E7002BF6D04B465842A8
:102D080001231843E1E7009F02202743DDD1C5E7EF
:102D1800674602201743D8D1C3E7B14204DD4A46CB
:102D2800504201231843D0E7B14207DB00986045C1
:102D3800E4D80AD0009F00206745C6D24F467842A3
:102D48007841404201231843BFE7019A5245D5D83C
:102D5800019A00205245F1D3B7E7C046FF070000AB
:102D6800014B18687047C0468000002010B500234A
:102D7800934203D0CC5CC4540133F9E710BD00235F
:102D8800C25C0133002AFBD1581E704730B5051CC0
:102D98009BB0141E04DA8B230360012040421DE01F
:102DA80082229200684600910491002182818C421F
:102DB80000D0611E01225242029105916946CA81E2
:102DC800281C1A1C1E9B00F07BF8421C01DA8B237E
:102DD8002B60002C02D0009900230B701BB030BD73
:102DE80073B5141C054A061C0D1C1068311C009391
:102DF8002A1C231CFFF7CAFF76BDC04680000020AE
:102E0800F0B58D6885B0071C0C1C03920193AB428A
:102E180045D390228B89D20013423DD062690326A4
:102E2800564309692068F20F401A96190290021C4D
:102E38000198013212187610964200D2161C381CDE
:102E48005A050FD5311C00F021FB051E13D0029A3C
:102E58002169FFF78BFFA289184B13408022134387
:102E6800A38111E0321C00F065FB051E0CD1381C53
:102E7800216900F0C3FA0C233B60A3894022134365
:102E88000120A381404217E0029B2561ED182560CF
:102E98006661019DF61AA6600198A84200D2019DBC
:102EA8002A1C2068039900F090FAA2680020531B9E
:102EB800A36023685D19256005B0F0BD7FFBFFFFA7
:102EC800F0B59FB0039005938B890E1C171C19064B
:102ED8000FD53269002A0CD1402100F0D7FA3060B2
:102EE8003061002803D103990C230B60C9E040230B
:102EF800736106AD00236B6120236B763023AB76BC
:102F08003C1C2378002B03D1E21B029211D003E072
:102F1800252BF9D00134F4E70398311C3A1C029BA5
:102F2800FFF76EFF013000D1A6E06969029A8B189D
:102F38006B612378002B00D19EE0012252426A6027
:102F48006A4600235B3201342B60EB60AB60137080
:102F5800AB654E4F2178381C052200F02BFA00286B
:102F680007D0C71B2B680120B840184328600134DC
:102F7800EFE72B68D90603D56A4620215B3211702A
:102F88001A0703D56A462B215B32117022782A2A48
:102F980001D0099B0EE0059A111D12680591002ABF
:102FA80001DB099204E05242EA60022213432B60DB
:102FB800013409E02278303A092A04D80A214B431F
:102FC80001349B18F6E7099323782E2B18D16378E0
:102FD8002A2B09D1059B02341A1D1B680592002B68
:102FE8000DDA01235B420AE0013400232278303AEB
:102FF800092A04D80A214B4301349B18F6E70793A2
:10300800234F2178381C032200F0D4F9002806D079
:10301800C71B2B684020B84018432860013421782A
:103028001C480622671C297600F0C4F9002812D033
:10303800194B002B06D1059B07220733934308330E
:10304800059314E005AB00930398291C321C134B1D
:1030580000E000BF07E005AB00930398291C321C71
:103068000E4B00F091F804900499013104D06A697C
:10307800049953186B6143E7B3895A0601D40B9836
:1030880001E0012040421FB0F0BDC0463A390008B7
:10309800403900084439000800000000092E0008E3
:1030A800F7B5151C01930A698B68061C0C1C934222
:1030B80000DA131C221C2B6043321278002A01D03C
:1030C80001332B602068800602D52B6802332B6001
:1030D800216806270F401FD0231C43331B785A1E34
:1030E8009341226892061FD5E11840313020C870FC
:1030F800211C5A1C45310978A21840320233D1707C
:1031080012E0221C301C019919320123089FB8478C
:10311800013011D0009F01370097E0682968009FAF
:10312800431A9F42EDDBD7E7221C301C019943323A
:10313800089FB847013002D10120404223E02068AF
:1031480006212B68E26801400025042903D1D51A1D
:10315800EB43DB171D40A26823699A4201DDD31AAD
:10316800ED1800270097009FAF420BDA221C301C95
:1031780001991A320123089FB8470130DCD0009F1B
:103188000137EFE70020FEBDF0B50D1C8BB04335CD
:1031980006920590079304950B7E0C1C109A6E2BD3
:1031A80000D1A7E011D8632B22D009D8002B00D179
:1031B800B0E0582B00D0C0E045310B707B4D4EE09D
:1031C800642B1CD0692B1AD0B7E0732B00D1A5E073
:1031D80009D86F2B29D0702B00D0AEE00E682023C1
:1031E80033430B6036E0752B1FD0782B32D0A4E028
:1031F80013680D1C191D423511601B689FE021687A
:1032080013680E0603D5191D11601E6805E04806EF
:10321800F9D5191D116000215E5E644B002E3BDA62
:10322800049D2D2276422A7036E0216813680E0626
:1032380003D5191D11601E6804E04806F9D5191D4B
:103248001E881160594B227E039308276F2A1ED0CF
:103258000A271CE0231C78214533554D1970116845
:103268002368081D039510601E0601D50E6802E04C
:103278005806FBD50E88D90702D5202213432360B0
:103288001027002E03D1226820239A432260231C92
:10329800002243331A7001E003930A276368A3608E
:1032A800002B03DB2568042295432560002E02D1FC
:1032B800049D002B0ED0049D301C391CFDF77AFFAD
:1032C8000398013D435C301C2B70391CFDF72EFF21
:1032D800061EF1D1082F09D12168C90706D56268F1
:1032E80023699A4202DC013D30232B70049E731B34
:1032F80023612AE0086813684969050604D5181D82
:1033080010601B68196005E04606F8D5181D1060A6
:103318001B68198000232361049D16E01368191D9A
:1033280011601D68281CFFF72AFD63682061984218
:1033380000D923612069606004E0251C42352B70A8
:1033480001232361049E00233370079E059800968D
:10335800211C09AA069BFFF7A3FE013002D1012018
:10336800404221E02A1C059806992369079DA84731
:103378000130F4D02668B60705D4099BE068984266
:1033880012DA181C10E00025E0680999431A9D42DA
:10339800F3DA221C0598069919320123079EB047D3
:1033A8000130DCD00135EFE70BB0F0BD4B39000838
:1033B8005C390008C9B28218904204D003788B4265
:1033C80002D00130F8E70020704770B5814201D380
:1033D80000230CE08C18A042FAD28518131C013B7C
:1033E8000BD351426618F65C6918CE54F7E793423E
:1033F80003D0CC5CC4540133F9E770BD30B5002963
:1034080040D004390B68002B00DAC9181E4A13682B
:10341800141C002B02D14B60116033E099420FD28B
:1034280008680A189A4205D113685268C0180860DB
:103438004A6000E04B60216024E08A4203D8131CF4
:103448005A68002AF9D11D685C198C420BD10968A9
:10345800691858181960904214D1146852680919EB
:1034680019605A600EE08C4202D90C23036009E00F
:1034780008680C18944203D114685268001908604F
:103488004A60596030BDC0463001002070B5032342
:10349800CD1C9D430835061C0C2D01D20C2501E0DE
:1034A800002D3FDB8D423DD3204B1C681A1C211C8C
:1034B800002913D00868431B0DD40B2B02D90B60CD
:1034C800CC181EE08C4202D1636813601AE0486889
:1034D80060600C1C16E00C1C4968E9E7144C206875
:1034E800002803D1301C00F04BF82060301C291C48
:1034F80000F046F8431C15D0C41C03239C438442A7
:103508000AD12560201C0B300722231D9043C31AC3
:103518000BD05A42E25008E0211A301C00F030F873
:103528000130EED10C233360002070BD3001002043
:103538002C010020F8B5061C0C1C151C002904D110
:10354800111CFFF7A3FF041C18E0002A03D1FFF7A2
:1035580055FF2C1C12E000F025F8A8420ED2301CB2
:10356800291CFFF793FF071E07D0211C2A1CFFF711
:10357800FDFB301C211CFFF741FF3C1C201CF8BD43
:1035880038B5074C0023051C081C2360FDF7BAF862
:10359800431C03D12368002B00D02B6038BDC046E4
:1035A8003401002004390B68181F002B02DAC858B0
:1035B8001B18181F704700002E2E2F73797374651F
:1035C8006D2F7372632F73746D333266302D73747D
:1035D800647065726970682F73746D333266307801
:1035E800785F6770696F2E63000000002E2E2F73BE
:1035F800797374656D2F7372632F73746D333266CC
:10360800302D7374647065726970682F73746D33CC
:1036180032663078785F7263632E63002E2E2F73C4
:10362800797374656D2F7372632F73746D3332669B
:10363800302D7374647065726970682F73746D339C
:1036480032663078785F7370692E630061626F72DA
:103658007428292C2065786974696E672E2E2E00CF
:103668002C2066756E6374696F6E3A200000000046
:10367800617373657274696F6E20222573222066E8
:1036880061696C65643A2066696C6520222573223D
:103698002C206C696E65202564257325730A00004B
:1036A8006173736572745F706172616D2829206639
:1036B80061696C65643A2066696C6520222573220D
:1036C8002C206C696E652025640A00006D61696EA6
:1036D80028617267633D25642C20617267763D5BC3
:1036E800000000002C2000002225732200000000AA
:1036F8005D293B0A00000000537461636B20667209
:10370800616D653A0A000000205230203D202025D6
:103718003038580A00000000205231203D20202572
:103728003038580A00000000205232203D20202561
:103738003038580A00000000205233203D20202550
:103748003038580A0000000020523132203D202530
:103758003038580A00000000204C52203D20202517
:103768003038580A00000000205043203D20202512
:103778003038580A0000000020505352203D2025C0
:103788003038580A000000004D6973630A000000D1
:10379800204C522F4558435F52455455524E3D20B8
:1037A800253038580A0000005B486172644661752C
:1037B8006C745D0A000000003030303000000000FA
:1037C800523A00004F680000463A0000487A00006C
:1037D8000A204C434420696E697469616C697A6196
:1037E80074696F6E2068617320636F6D706C6574A7
:1037F80065642E2E2E200A00546869732069732090
:10380800506172742032206F6620496E74726F6442
:103818007563746F7279204C61622E2E2E0A000037
:1038280053797374656D20636C6F636B3A202575EB
:1038380020487A0A0000000046713A25640A000010
:10384800566F6C746167653A25640A00526573693E
:103858007374616E63653A25640A0A000A2A2A2A83
:10386800204F766572666C6F7721202A2A2A0A0013
:10387800941300084613000874130008CE120008B9
:10388800741300086A13000874130008CE120008A5
:1038980046130008461300086A130008CE120008F1
:1038A800C6120008C6120008C61200087A130008DB
:1038B800BC150008B6150008B6150008AC150008B8
:1038C8000C1500080C150008A2150008AC15000816
:1038D8000C150008A21500080C150008AC15000806
:1038E8000A1500080A1500080A15000844160008F9
:1038F8009C1C0008381C0008801C0008661B000877
:10390800801C0008741C0008801C0008661B000846
:10391800381C0008381C0008741C0008661B0008C6
:103928005C1B00085C1B00085C1B0008C01E00082C
:103938004300232D302B2000686C4C0065666745DA
:10394800464700303132333435363738394142430F
:1039580044454600303132333435363738396162C0
:053968006364656600C8
:103970007856341290000020000000000000000083
:10398000000000000102030406070809006CDC02C5
:103990000000000000000000000000000000000027
:1039A0000000000000000000000000000000000017
:1039B000383900080000000000000000000000008E
:1039C00000000000000000000000000000000000F7
:1039D00000000000000000000000000000000000E7
:1039E00000000000000000000000000000000000D7
:0839F0002000002032547698FB
:04000005080000C52A
:00000001FF
